{
  "contractName": "MultiSigWallet",
  "abi": [
    {
      "inputs": [],
      "stateMutability": "nonpayable",
      "type": "constructor"
    },
    {
      "inputs": [
        {
          "internalType": "uint256",
          "name": "",
          "type": "uint256"
        }
      ],
      "name": "charities",
      "outputs": [
        {
          "internalType": "uint256",
          "name": "charityID",
          "type": "uint256"
        },
        {
          "internalType": "address",
          "name": "donationRecipient",
          "type": "address"
        },
        {
          "internalType": "string",
          "name": "charityName",
          "type": "string"
        },
        {
          "internalType": "uint256",
          "name": "targetDonationAmount",
          "type": "uint256"
        },
        {
          "internalType": "uint256",
          "name": "currentDonationAmount",
          "type": "uint256"
        }
      ],
      "stateMutability": "view",
      "type": "function"
    },
    {
      "inputs": [
        {
          "internalType": "uint256",
          "name": "",
          "type": "uint256"
        }
      ],
      "name": "isAlreadyACharity",
      "outputs": [
        {
          "internalType": "bool",
          "name": "",
          "type": "bool"
        }
      ],
      "stateMutability": "view",
      "type": "function"
    },
    {
      "inputs": [
        {
          "internalType": "address",
          "name": "",
          "type": "address"
        }
      ],
      "name": "isBOD",
      "outputs": [
        {
          "internalType": "bool",
          "name": "",
          "type": "bool"
        }
      ],
      "stateMutability": "view",
      "type": "function"
    },
    {
      "inputs": [],
      "name": "owner",
      "outputs": [
        {
          "internalType": "address",
          "name": "",
          "type": "address"
        }
      ],
      "stateMutability": "view",
      "type": "function"
    },
    {
      "inputs": [
        {
          "internalType": "address",
          "name": "_bod",
          "type": "address"
        }
      ],
      "name": "addBOD",
      "outputs": [],
      "stateMutability": "nonpayable",
      "type": "function"
    },
    {
      "inputs": [
        {
          "internalType": "address",
          "name": "_bod",
          "type": "address"
        }
      ],
      "name": "removeBOD",
      "outputs": [],
      "stateMutability": "nonpayable",
      "type": "function"
    },
    {
      "inputs": [
        {
          "internalType": "uint256",
          "name": "_id",
          "type": "uint256"
        },
        {
          "internalType": "address",
          "name": "_recipient",
          "type": "address"
        },
        {
          "internalType": "string",
          "name": "_name",
          "type": "string"
        },
        {
          "internalType": "uint256",
          "name": "_targetDonation",
          "type": "uint256"
        }
      ],
      "name": "addCharity",
      "outputs": [],
      "stateMutability": "nonpayable",
      "type": "function"
    }
  ],
  "bytecode": "0x608060405234801561001057600080fd5b50336000806101000a81548173ffffffffffffffffffffffffffffffffffffffff021916908373ffffffffffffffffffffffffffffffffffffffff160217905550610d50806100606000396000f3fe608060405234801561001057600080fd5b506004361061007d5760003560e01c80635f5db5551161005b5780635f5db555146100ea5780638da5cb5b14610106578063a941b7e814610124578063fb709d2e146101545761007d565b80632340579d146100825780632db318ca1461009e5780635f2029c1146100ce575b600080fd5b61009c600480360381019061009791906109b4565b610188565b005b6100b860048036038101906100b39190610a37565b61039e565b6040516100c59190610a7f565b60405180910390f35b6100e860048036038101906100e39190610a9a565b6103be565b005b61010460048036038101906100ff9190610a9a565b6104e0565b005b61010e610601565b60405161011b9190610ad6565b60405180910390f35b61013e60048036038101906101399190610a9a565b610625565b60405161014b9190610a7f565b60405180910390f35b61016e60048036038101906101699190610a37565b610645565b60405161017f959493929190610b88565b60405180910390f35b60008054906101000a900473ffffffffffffffffffffffffffffffffffffffff1673ffffffffffffffffffffffffffffffffffffffff163373ffffffffffffffffffffffffffffffffffffffff1614610216576040517f08c379a000000000000000000000000000000000000000000000000000000000815260040161020d90610c2e565b60405180910390fd5b600115156003600086815260200190815260200160002060009054906101000a900460ff1615150361027d576040517f08c379a000000000000000000000000000000000000000000000000000000000815260040161027490610c9a565b60405180910390fd5b600073ffffffffffffffffffffffffffffffffffffffff168373ffffffffffffffffffffffffffffffffffffffff16036102b657600080fd5b60016003600086815260200190815260200160002060006101000a81548160ff021916908315150217905550836002600086815260200190815260200160002060000181905550826002600086815260200190815260200160002060010160006101000a81548173ffffffffffffffffffffffffffffffffffffffff021916908373ffffffffffffffffffffffffffffffffffffffff1602179055508160026000868152602001908152602001600020600201908051906020019061037c929190610723565b5080600260008681526020019081526020016000206003018190555050505050565b60036020528060005260406000206000915054906101000a900460ff1681565b60008054906101000a900473ffffffffffffffffffffffffffffffffffffffff1673ffffffffffffffffffffffffffffffffffffffff163373ffffffffffffffffffffffffffffffffffffffff161461044c576040517f08c379a000000000000000000000000000000000000000000000000000000000815260040161044390610c2e565b60405180910390fd5b600073ffffffffffffffffffffffffffffffffffffffff163373ffffffffffffffffffffffffffffffffffffffff160361048557600080fd5b6000600160008373ffffffffffffffffffffffffffffffffffffffff1673ffffffffffffffffffffffffffffffffffffffff16815260200190815260200160002060006101000a81548160ff02191690831515021790555050565b60008054906101000a900473ffffffffffffffffffffffffffffffffffffffff1673ffffffffffffffffffffffffffffffffffffffff163373ffffffffffffffffffffffffffffffffffffffff161461056e576040517f08c379a000000000000000000000000000000000000000000000000000000000815260040161056590610c2e565b60405180910390fd5b600073ffffffffffffffffffffffffffffffffffffffff163373ffffffffffffffffffffffffffffffffffffffff16036105a757600080fd5b60018060008373ffffffffffffffffffffffffffffffffffffffff1673ffffffffffffffffffffffffffffffffffffffff16815260200190815260200160002060006101000a81548160ff02191690831515021790555050565b60008054906101000a900473ffffffffffffffffffffffffffffffffffffffff1681565b60016020528060005260406000206000915054906101000a900460ff1681565b60026020528060005260406000206000915090508060000154908060010160009054906101000a900473ffffffffffffffffffffffffffffffffffffffff169080600201805461069490610ce9565b80601f01602080910402602001604051908101604052809291908181526020018280546106c090610ce9565b801561070d5780601f106106e25761010080835404028352916020019161070d565b820191906000526020600020905b8154815290600101906020018083116106f057829003601f168201915b5050505050908060030154908060040154905085565b82805461072f90610ce9565b90600052602060002090601f0160209004810192826107515760008555610798565b82601f1061076a57805160ff1916838001178555610798565b82800160010185558215610798579182015b8281111561079757825182559160200191906001019061077c565b5b5090506107a591906107a9565b5090565b5b808211156107c25760008160009055506001016107aa565b5090565b6000604051905090565b600080fd5b600080fd5b6000819050919050565b6107ed816107da565b81146107f857600080fd5b50565b60008135905061080a816107e4565b92915050565b600073ffffffffffffffffffffffffffffffffffffffff82169050919050565b600061083b82610810565b9050919050565b61084b81610830565b811461085657600080fd5b50565b60008135905061086881610842565b92915050565b600080fd5b600080fd5b6000601f19601f8301169050919050565b7f4e487b7100000000000000000000000000000000000000000000000000000000600052604160045260246000fd5b6108c182610878565b810181811067ffffffffffffffff821117156108e0576108df610889565b5b80604052505050565b60006108f36107c6565b90506108ff82826108b8565b919050565b600067ffffffffffffffff82111561091f5761091e610889565b5b61092882610878565b9050602081019050919050565b82818337600083830152505050565b600061095761095284610904565b6108e9565b90508281526020810184848401111561097357610972610873565b5b61097e848285610935565b509392505050565b600082601f83011261099b5761099a61086e565b5b81356109ab848260208601610944565b91505092915050565b600080600080608085870312156109ce576109cd6107d0565b5b60006109dc878288016107fb565b94505060206109ed87828801610859565b935050604085013567ffffffffffffffff811115610a0e57610a0d6107d5565b5b610a1a87828801610986565b9250506060610a2b878288016107fb565b91505092959194509250565b600060208284031215610a4d57610a4c6107d0565b5b6000610a5b848285016107fb565b91505092915050565b60008115159050919050565b610a7981610a64565b82525050565b6000602082019050610a946000830184610a70565b92915050565b600060208284031215610ab057610aaf6107d0565b5b6000610abe84828501610859565b91505092915050565b610ad081610830565b82525050565b6000602082019050610aeb6000830184610ac7565b92915050565b610afa816107da565b82525050565b600081519050919050565b600082825260208201905092915050565b60005b83811015610b3a578082015181840152602081019050610b1f565b83811115610b49576000848401525b50505050565b6000610b5a82610b00565b610b648185610b0b565b9350610b74818560208601610b1c565b610b7d81610878565b840191505092915050565b600060a082019050610b9d6000830188610af1565b610baa6020830187610ac7565b8181036040830152610bbc8186610b4f565b9050610bcb6060830185610af1565b610bd86080830184610af1565b9695505050505050565b7f6f6e6c79206f776e657200000000000000000000000000000000000000000000600082015250565b6000610c18600a83610b0b565b9150610c2382610be2565b602082019050919050565b60006020820190508181036000830152610c4781610c0b565b9050919050565b7f616c72656164792070726573656e740000000000000000000000000000000000600082015250565b6000610c84600f83610b0b565b9150610c8f82610c4e565b602082019050919050565b60006020820190508181036000830152610cb381610c77565b9050919050565b7f4e487b7100000000000000000000000000000000000000000000000000000000600052602260045260246000fd5b60006002820490506001821680610d0157607f821691505b602082108103610d1457610d13610cba565b5b5091905056fea264697066735822122012a41a34f07b02f9c99de4db8329cb85721cdead14d1b106a302b88680580bde64736f6c634300080d0033",
  "immutableReferences": {},
  "source": "// SPDX-License-Identifier: MIT\r\npragma solidity >=0.4.22 <0.9.0;\r\nimport \"./SafeMath.sol\";\r\n\r\ncontract MultiSigWallet {\r\n    using SafeMath for uint256;\r\n    address public owner;\r\n    mapping(address => bool) public isBOD;\r\n    struct Charity {\r\n        uint256 charityID;\r\n        address donationRecipient;\r\n        string charityName;\r\n        uint256 targetDonationAmount;\r\n        uint256 currentDonationAmount;\r\n        address[] donors;\r\n    }\r\n    mapping(uint256 => Charity) public charities;\r\n    mapping(uint256 => bool) public isAlreadyACharity;\r\n\r\n    constructor() {\r\n        owner = msg.sender;\r\n    }\r\n\r\n    // modifiers\r\n\r\n    modifier onlyOwner() {\r\n        require(msg.sender == owner, \"only owner\");\r\n        _;\r\n    }\r\n\r\n    function addBOD(address _bod) external onlyOwner {\r\n        require(msg.sender != address(0));\r\n        isBOD[_bod] = true;\r\n    }\r\n\r\n    function removeBOD(address _bod) external onlyOwner {\r\n        require(msg.sender != address(0));\r\n        isBOD[_bod] = false;\r\n    }\r\n\r\n    function addCharity(\r\n        uint256 _id,\r\n        address _recipient,\r\n        string memory _name,\r\n        uint256 _targetDonation\r\n    ) external onlyOwner {\r\n        require(isAlreadyACharity[_id] != true, \"already present\");\r\n        require(_recipient != address(0));\r\n        //updating a Charity\r\n        isAlreadyACharity[_id] = true;\r\n        charities[_id].charityID = _id;\r\n        charities[_id].donationRecipient = _recipient;\r\n        charities[_id].charityName = _name;\r\n        charities[_id].targetDonationAmount = _targetDonation;\r\n    }\r\n}\r\n",
  "sourcePath": "C:\\Users\\Hp\\Desktop\\blockchain\\multisig\\contracts\\MultiSigWallet.sol",
  "compiler": {
    "name": "solc",
    "version": "0.8.13+commit.abaa5c0e.Emscripten.clang"
  },
  "schemaVersion": "3.4.7",
  "updatedAt": "2022-05-14T17:10:57.012Z",
  "devdoc": {
    "kind": "dev",
    "methods": {},
    "version": 1
  },
  "userdoc": {
    "kind": "user",
    "methods": {},
    "version": 1
  }
}