{
  "contractName": "MultiSigWallet",
  "abi": [
    {
      "inputs": [],
      "stateMutability": "nonpayable",
      "type": "constructor"
    },
    {
      "inputs": [
        {
          "internalType": "uint256",
          "name": "",
          "type": "uint256"
        }
      ],
      "name": "charities",
      "outputs": [
        {
          "internalType": "uint256",
          "name": "charityID",
          "type": "uint256"
        },
        {
          "internalType": "address payable",
          "name": "donationRecipient",
          "type": "address"
        },
        {
          "internalType": "string",
          "name": "charityName",
          "type": "string"
        },
        {
          "internalType": "uint256",
          "name": "targetDonationAmount",
          "type": "uint256"
        },
        {
          "internalType": "uint256",
          "name": "currentDonationAmount",
          "type": "uint256"
        },
        {
          "internalType": "uint256",
          "name": "approvers",
          "type": "uint256"
        }
      ],
      "stateMutability": "view",
      "type": "function"
    },
    {
      "inputs": [
        {
          "internalType": "uint256",
          "name": "",
          "type": "uint256"
        }
      ],
      "name": "isAlreadyACharity",
      "outputs": [
        {
          "internalType": "bool",
          "name": "",
          "type": "bool"
        }
      ],
      "stateMutability": "view",
      "type": "function"
    },
    {
      "inputs": [
        {
          "internalType": "address",
          "name": "",
          "type": "address"
        }
      ],
      "name": "isBOD",
      "outputs": [
        {
          "internalType": "bool",
          "name": "",
          "type": "bool"
        }
      ],
      "stateMutability": "view",
      "type": "function"
    },
    {
      "inputs": [],
      "name": "numberOfBOD",
      "outputs": [
        {
          "internalType": "uint256",
          "name": "",
          "type": "uint256"
        }
      ],
      "stateMutability": "view",
      "type": "function"
    },
    {
      "inputs": [],
      "name": "owner",
      "outputs": [
        {
          "internalType": "address",
          "name": "",
          "type": "address"
        }
      ],
      "stateMutability": "view",
      "type": "function"
    },
    {
      "inputs": [
        {
          "internalType": "address",
          "name": "_bod",
          "type": "address"
        }
      ],
      "name": "addBOD",
      "outputs": [],
      "stateMutability": "nonpayable",
      "type": "function"
    },
    {
      "inputs": [
        {
          "internalType": "address",
          "name": "_bod",
          "type": "address"
        }
      ],
      "name": "removeBOD",
      "outputs": [],
      "stateMutability": "nonpayable",
      "type": "function"
    },
    {
      "inputs": [
        {
          "internalType": "uint256",
          "name": "_id",
          "type": "uint256"
        },
        {
          "internalType": "address",
          "name": "_recipient",
          "type": "address"
        },
        {
          "internalType": "string",
          "name": "_name",
          "type": "string"
        },
        {
          "internalType": "uint256",
          "name": "_targetDonation",
          "type": "uint256"
        }
      ],
      "name": "addCharity",
      "outputs": [],
      "stateMutability": "nonpayable",
      "type": "function"
    },
    {
      "inputs": [
        {
          "internalType": "uint256",
          "name": "_id",
          "type": "uint256"
        }
      ],
      "name": "donateToCharity",
      "outputs": [],
      "stateMutability": "payable",
      "type": "function"
    },
    {
      "inputs": [
        {
          "internalType": "uint256",
          "name": "_id",
          "type": "uint256"
        }
      ],
      "name": "approveForDonation",
      "outputs": [],
      "stateMutability": "nonpayable",
      "type": "function"
    },
    {
      "inputs": [
        {
          "internalType": "uint256",
          "name": "_id",
          "type": "uint256"
        }
      ],
      "name": "transferFundsToCharity",
      "outputs": [],
      "stateMutability": "nonpayable",
      "type": "function"
    }
  ],
  "bytecode": "0x608060405234801561001057600080fd5b50336000806101000a81548173ffffffffffffffffffffffffffffffffffffffff021916908373ffffffffffffffffffffffffffffffffffffffff160217905550611f1f806100606000396000f3fe60806040526004361061009c5760003560e01c806389e7728c1161006457806389e7728c146101825780638da5cb5b146101ab578063a457139a146101d6578063a941b7e814610201578063beeaee911461023e578063fb709d2e1461025a5761009c565b80632340579d146100a15780632db318ca146100ca578063575d0b51146101075780635f2029c1146101305780635f5db55514610159575b600080fd5b3480156100ad57600080fd5b506100c860048036038101906100c3919061155a565b61029c565b005b3480156100d657600080fd5b506100f160048036038101906100ec91906115dd565b6104b2565b6040516100fe9190611625565b60405180910390f35b34801561011357600080fd5b5061012e600480360381019061012991906115dd565b6104d2565b005b34801561013c57600080fd5b5061015760048036038101906101529190611640565b610765565b005b34801561016557600080fd5b50610180600480360381019061017b9190611640565b61097b565b005b34801561018e57600080fd5b506101a960048036038101906101a491906115dd565b610b4b565b005b3480156101b757600080fd5b506101c0610e0d565b6040516101cd919061167c565b60405180910390f35b3480156101e257600080fd5b506101eb610e31565b6040516101f891906116a6565b60405180910390f35b34801561020d57600080fd5b5061022860048036038101906102239190611640565b610e37565b6040516102359190611625565b60405180910390f35b610258600480360381019061025391906115dd565b610e57565b005b34801561026657600080fd5b50610281600480360381019061027c91906115dd565b61102c565b6040516102939695949392919061176a565b60405180910390f35b60008054906101000a900473ffffffffffffffffffffffffffffffffffffffff1673ffffffffffffffffffffffffffffffffffffffff163373ffffffffffffffffffffffffffffffffffffffff161461032a576040517f08c379a00000000000000000000000000000000000000000000000000000000081526004016103219061181e565b60405180910390fd5b600115156004600086815260200190815260200160002060009054906101000a900460ff16151503610391576040517f08c379a00000000000000000000000000000000000000000000000000000000081526004016103889061188a565b60405180910390fd5b600073ffffffffffffffffffffffffffffffffffffffff168373ffffffffffffffffffffffffffffffffffffffff16036103ca57600080fd5b60016004600086815260200190815260200160002060006101000a81548160ff021916908315150217905550836003600086815260200190815260200160002060000181905550826003600086815260200190815260200160002060010160006101000a81548173ffffffffffffffffffffffffffffffffffffffff021916908373ffffffffffffffffffffffffffffffffffffffff160217905550816003600086815260200190815260200160002060020190805190602001906104909291906112c9565b5080600360008681526020019081526020016000206003018190555050505050565b60046020528060005260406000206000915054906101000a900460ff1681565b60008054906101000a900473ffffffffffffffffffffffffffffffffffffffff1673ffffffffffffffffffffffffffffffffffffffff163373ffffffffffffffffffffffffffffffffffffffff1614610560576040517f08c379a00000000000000000000000000000000000000000000000000000000081526004016105579061181e565b60405180910390fd5b600115156004600083815260200190815260200160002060009054906101000a900460ff161515146105c7576040517f08c379a00000000000000000000000000000000000000000000000000000000081526004016105be906118f6565b60405180910390fd5b600360008281526020019081526020016000206003015460036000838152602001908152602001600020600401541015610636576040517f08c379a000000000000000000000000000000000000000000000000000000000815260040161062d90611962565b60405180910390fd5b61064b6002805461111090919063ffffffff16565b600360008381526020019081526020016000206006015410156106a3576040517f08c379a000000000000000000000000000000000000000000000000000000000815260040161069a906119ce565b60405180910390fd5b6003600082815260200190815260200160002060010160009054906101000a900473ffffffffffffffffffffffffffffffffffffffff1673ffffffffffffffffffffffffffffffffffffffff166108fc60036000848152602001908152602001600020600401549081150290604051600060405180830381858888f19350505050158015610735573d6000803e3d6000fd5b5060006004600083815260200190815260200160002060006101000a81548160ff02191690831515021790555050565b60008054906101000a900473ffffffffffffffffffffffffffffffffffffffff1673ffffffffffffffffffffffffffffffffffffffff163373ffffffffffffffffffffffffffffffffffffffff16146107f3576040517f08c379a00000000000000000000000000000000000000000000000000000000081526004016107ea9061181e565b60405180910390fd5b60011515600160008373ffffffffffffffffffffffffffffffffffffffff1673ffffffffffffffffffffffffffffffffffffffff16815260200190815260200160002060009054906101000a900460ff16151514610886576040517f08c379a000000000000000000000000000000000000000000000000000000000815260040161087d90611a3a565b60405180910390fd5b6000600254116108cb576040517f08c379a00000000000000000000000000000000000000000000000000000000081526004016108c290611aa6565b60405180910390fd5b600073ffffffffffffffffffffffffffffffffffffffff168173ffffffffffffffffffffffffffffffffffffffff160361090457600080fd5b6000600160008373ffffffffffffffffffffffffffffffffffffffff1673ffffffffffffffffffffffffffffffffffffffff16815260200190815260200160002060006101000a81548160ff021916908315150217905550610972600160025461115a90919063ffffffff16565b60028190555050565b60008054906101000a900473ffffffffffffffffffffffffffffffffffffffff1673ffffffffffffffffffffffffffffffffffffffff163373ffffffffffffffffffffffffffffffffffffffff1614610a09576040517f08c379a0000000000000000000000000000000000000000000000000000000008152600401610a009061181e565b60405180910390fd5b60001515600160008373ffffffffffffffffffffffffffffffffffffffff1673ffffffffffffffffffffffffffffffffffffffff16815260200190815260200160002060009054906101000a900460ff16151514610a9c576040517f08c379a0000000000000000000000000000000000000000000000000000000008152600401610a9390611b12565b60405180910390fd5b600073ffffffffffffffffffffffffffffffffffffffff168173ffffffffffffffffffffffffffffffffffffffff1603610ad557600080fd5b60018060008373ffffffffffffffffffffffffffffffffffffffff1673ffffffffffffffffffffffffffffffffffffffff16815260200190815260200160002060006101000a81548160ff021916908315150217905550610b4260016002546111a490919063ffffffff16565b60028190555050565b600115156004600083815260200190815260200160002060009054906101000a900460ff16151514610bb2576040517f08c379a0000000000000000000000000000000000000000000000000000000008152600401610ba9906118f6565b60405180910390fd5b600015156003600083815260200190815260200160002060070160003373ffffffffffffffffffffffffffffffffffffffff1673ffffffffffffffffffffffffffffffffffffffff16815260200190815260200160002060009054906101000a900460ff16151514610c59576040517f08c379a0000000000000000000000000000000000000000000000000000000008152600401610c5090611b7e565b60405180910390fd5b60011515600160003373ffffffffffffffffffffffffffffffffffffffff1673ffffffffffffffffffffffffffffffffffffffff16815260200190815260200160002060009054906101000a900460ff16151514610cec576040517f08c379a0000000000000000000000000000000000000000000000000000000008152600401610ce390611bea565b60405180910390fd5b6003600082815260200190815260200160002060030154600360008381526020019081526020016000206004015414610d5a576040517f08c379a0000000000000000000000000000000000000000000000000000000008152600401610d5190611c56565b60405180910390fd5b610d84600160036000848152602001908152602001600020600601546111a490919063ffffffff16565b600360008381526020019081526020016000206006018190555060016003600083815260200190815260200160002060070160003373ffffffffffffffffffffffffffffffffffffffff1673ffffffffffffffffffffffffffffffffffffffff16815260200190815260200160002060006101000a81548160ff02191690831515021790555050565b60008054906101000a900473ffffffffffffffffffffffffffffffffffffffff1681565b60025481565b60016020528060005260406000206000915054906101000a900460ff1681565b600115156004600083815260200190815260200160002060009054906101000a900460ff16151514610ebe576040517f08c379a0000000000000000000000000000000000000000000000000000000008152600401610eb5906118f6565b60405180910390fd5b6003600082815260200190815260200160002060030154600360008381526020019081526020016000206004015410610f2c576040517f08c379a0000000000000000000000000000000000000000000000000000000008152600401610f2390611c56565b60405180910390fd5b60003411610f6f576040517f08c379a0000000000000000000000000000000000000000000000000000000008152600401610f6690611cc2565b60405180910390fd5b610f983460036000848152602001908152602001600020600401546111a490919063ffffffff16565b600360008381526020019081526020016000206004018190555060036000828152602001908152602001600020600501339080600181540180825580915050600190039060005260206000200160009091909190916101000a81548173ffffffffffffffffffffffffffffffffffffffff021916908373ffffffffffffffffffffffffffffffffffffffff16021790555050565b60036020528060005260406000206000915090508060000154908060010160009054906101000a900473ffffffffffffffffffffffffffffffffffffffff169080600201805461107b90611d11565b80601f01602080910402602001604051908101604052809291908181526020018280546110a790611d11565b80156110f45780601f106110c9576101008083540402835291602001916110f4565b820191906000526020600020905b8154815290600101906020018083116110d757829003601f168201915b5050505050908060030154908060040154908060060154905086565b600061115283836040518060400160405280601a81526020017f536166654d6174683a206469766973696f6e206279207a65726f000000000000815250611202565b905092915050565b600061119c83836040518060400160405280601e81526020017f536166654d6174683a207375627472616374696f6e206f766572666c6f770000815250611265565b905092915050565b60008082846111b39190611d71565b9050838110156111f8576040517f08c379a00000000000000000000000000000000000000000000000000000000081526004016111ef90611e13565b60405180910390fd5b8091505092915050565b60008083118290611249576040517f08c379a00000000000000000000000000000000000000000000000000000000081526004016112409190611e33565b60405180910390fd5b50600083856112589190611e84565b9050809150509392505050565b60008383111582906112ad576040517f08c379a00000000000000000000000000000000000000000000000000000000081526004016112a49190611e33565b60405180910390fd5b50600083856112bc9190611eb5565b9050809150509392505050565b8280546112d590611d11565b90600052602060002090601f0160209004810192826112f7576000855561133e565b82601f1061131057805160ff191683800117855561133e565b8280016001018555821561133e579182015b8281111561133d578251825591602001919060010190611322565b5b50905061134b919061134f565b5090565b5b80821115611368576000816000905550600101611350565b5090565b6000604051905090565b600080fd5b600080fd5b6000819050919050565b61139381611380565b811461139e57600080fd5b50565b6000813590506113b08161138a565b92915050565b600073ffffffffffffffffffffffffffffffffffffffff82169050919050565b60006113e1826113b6565b9050919050565b6113f1816113d6565b81146113fc57600080fd5b50565b60008135905061140e816113e8565b92915050565b600080fd5b600080fd5b6000601f19601f8301169050919050565b7f4e487b7100000000000000000000000000000000000000000000000000000000600052604160045260246000fd5b6114678261141e565b810181811067ffffffffffffffff821117156114865761148561142f565b5b80604052505050565b600061149961136c565b90506114a5828261145e565b919050565b600067ffffffffffffffff8211156114c5576114c461142f565b5b6114ce8261141e565b9050602081019050919050565b82818337600083830152505050565b60006114fd6114f8846114aa565b61148f565b90508281526020810184848401111561151957611518611419565b5b6115248482856114db565b509392505050565b600082601f83011261154157611540611414565b5b81356115518482602086016114ea565b91505092915050565b6000806000806080858703121561157457611573611376565b5b6000611582878288016113a1565b9450506020611593878288016113ff565b935050604085013567ffffffffffffffff8111156115b4576115b361137b565b5b6115c08782880161152c565b92505060606115d1878288016113a1565b91505092959194509250565b6000602082840312156115f3576115f2611376565b5b6000611601848285016113a1565b91505092915050565b60008115159050919050565b61161f8161160a565b82525050565b600060208201905061163a6000830184611616565b92915050565b60006020828403121561165657611655611376565b5b6000611664848285016113ff565b91505092915050565b611676816113d6565b82525050565b6000602082019050611691600083018461166d565b92915050565b6116a081611380565b82525050565b60006020820190506116bb6000830184611697565b92915050565b60006116cc826113b6565b9050919050565b6116dc816116c1565b82525050565b600081519050919050565b600082825260208201905092915050565b60005b8381101561171c578082015181840152602081019050611701565b8381111561172b576000848401525b50505050565b600061173c826116e2565b61174681856116ed565b93506117568185602086016116fe565b61175f8161141e565b840191505092915050565b600060c08201905061177f6000830189611697565b61178c60208301886116d3565b818103604083015261179e8187611731565b90506117ad6060830186611697565b6117ba6080830185611697565b6117c760a0830184611697565b979650505050505050565b7f6f6e6c79206f776e657200000000000000000000000000000000000000000000600082015250565b6000611808600a836116ed565b9150611813826117d2565b602082019050919050565b60006020820190508181036000830152611837816117fb565b9050919050565b7f616c72656164792070726573656e740000000000000000000000000000000000600082015250565b6000611874600f836116ed565b915061187f8261183e565b602082019050919050565b600060208201905081810360008301526118a381611867565b9050919050565b7f6e6f742061206368617269747900000000000000000000000000000000000000600082015250565b60006118e0600d836116ed565b91506118eb826118aa565b602082019050919050565b6000602082019050818103600083015261190f816118d3565b9050919050565b7f646f6e6174696f6e20746172676574206e6f7420726561636865640000000000600082015250565b600061194c601b836116ed565b915061195782611916565b602082019050919050565b6000602082019050818103600083015261197b8161193f565b9050919050565b7f424f4420646f736520617070726f766564000000000000000000000000000000600082015250565b60006119b86011836116ed565b91506119c382611982565b602082019050919050565b600060208201905081810360008301526119e7816119ab565b9050919050565b7f4e6f742070726573656e74000000000000000000000000000000000000000000600082015250565b6000611a24600b836116ed565b9150611a2f826119ee565b602082019050919050565b60006020820190508181036000830152611a5381611a17565b9050919050565b7f6e6f20424f4420666f756e640000000000000000000000000000000000000000600082015250565b6000611a90600c836116ed565b9150611a9b82611a5a565b602082019050919050565b60006020820190508181036000830152611abf81611a83565b9050919050565b7f626f6420616c72656164792070726573656e7400000000000000000000000000600082015250565b6000611afc6013836116ed565b9150611b0782611ac6565b602082019050919050565b60006020820190508181036000830152611b2b81611aef565b9050919050565b7f616c726561647920617070726f76656400000000000000000000000000000000600082015250565b6000611b686010836116ed565b9150611b7382611b32565b602082019050919050565b60006020820190508181036000830152611b9781611b5b565b9050919050565b7f6e6f74206120626f640000000000000000000000000000000000000000000000600082015250565b6000611bd46009836116ed565b9150611bdf82611b9e565b602082019050919050565b60006020820190508181036000830152611c0381611bc7565b9050919050565b7f646f6e6174696f6e207461726765742072656163686564000000000000000000600082015250565b6000611c406017836116ed565b9150611c4b82611c0a565b602082019050919050565b60006020820190508181036000830152611c6f81611c33565b9050919050565b7f6d75737420626520736f6d652076616c75650000000000000000000000000000600082015250565b6000611cac6012836116ed565b9150611cb782611c76565b602082019050919050565b60006020820190508181036000830152611cdb81611c9f565b9050919050565b7f4e487b7100000000000000000000000000000000000000000000000000000000600052602260045260246000fd5b60006002820490506001821680611d2957607f821691505b602082108103611d3c57611d3b611ce2565b5b50919050565b7f4e487b7100000000000000000000000000000000000000000000000000000000600052601160045260246000fd5b6000611d7c82611380565b9150611d8783611380565b9250827fffffffffffffffffffffffffffffffffffffffffffffffffffffffffffffffff03821115611dbc57611dbb611d42565b5b828201905092915050565b7f536166654d6174683a206164646974696f6e206f766572666c6f770000000000600082015250565b6000611dfd601b836116ed565b9150611e0882611dc7565b602082019050919050565b60006020820190508181036000830152611e2c81611df0565b9050919050565b60006020820190508181036000830152611e4d8184611731565b905092915050565b7f4e487b7100000000000000000000000000000000000000000000000000000000600052601260045260246000fd5b6000611e8f82611380565b9150611e9a83611380565b925082611eaa57611ea9611e55565b5b828204905092915050565b6000611ec082611380565b9150611ecb83611380565b925082821015611ede57611edd611d42565b5b82820390509291505056fea264697066735822122019ae332f036a2e8dbcbc38f0db475ef13d2c9180322278ee5a140f4de57b965064736f6c634300080d0033",
  "immutableReferences": {},
  "source": "// SPDX-License-Identifier: MIT\r\npragma solidity >=0.4.22 <0.9.0;\r\nimport \"./SafeMath.sol\";\r\n\r\ncontract MultiSigWallet {\r\n    using SafeMath for uint256;\r\n    address public owner;\r\n    mapping(address => bool) public isBOD;\r\n    uint256 public numberOfBOD;\r\n    struct Charity {\r\n        uint256 charityID;\r\n        address payable donationRecipient;\r\n        string charityName;\r\n        uint256 targetDonationAmount;\r\n        uint256 currentDonationAmount;\r\n        address[] donors;\r\n        uint256 approvers;\r\n        mapping(address => bool) approved;\r\n    }\r\n    mapping(uint256 => Charity) public charities;\r\n    mapping(uint256 => bool) public isAlreadyACharity;\r\n\r\n    constructor() {\r\n        owner = msg.sender;\r\n    }\r\n\r\n    // modifiers\r\n\r\n    modifier onlyOwner() {\r\n        require(msg.sender == owner, \"only owner\");\r\n        _;\r\n    }\r\n\r\n    function addBOD(address _bod) external onlyOwner {\r\n        require(isBOD[_bod] == false, \"bod already present\");\r\n        require(_bod != address(0));\r\n        isBOD[_bod] = true;\r\n        numberOfBOD = numberOfBOD.add(1);\r\n    }\r\n\r\n    function removeBOD(address _bod) external onlyOwner {\r\n        require(isBOD[_bod] == true, \"Not present\");\r\n\r\n        require(numberOfBOD > 0, \"no BOD found\");\r\n        require(_bod != address(0));\r\n        isBOD[_bod] = false;\r\n        numberOfBOD = numberOfBOD.sub(1);\r\n    }\r\n\r\n    function addCharity(\r\n        uint256 _id,\r\n        address _recipient,\r\n        string memory _name,\r\n        uint256 _targetDonation\r\n    ) external onlyOwner {\r\n        require(isAlreadyACharity[_id] != true, \"already present\");\r\n        require(_recipient != address(0));\r\n        //updating a Charity\r\n        isAlreadyACharity[_id] = true;\r\n        charities[_id].charityID = _id;\r\n        charities[_id].donationRecipient = payable(_recipient);\r\n        charities[_id].charityName = _name;\r\n        charities[_id].targetDonationAmount = _targetDonation;\r\n    }\r\n\r\n    function donateToCharity(uint256 _id) external payable {\r\n        require(isAlreadyACharity[_id] == true, \"not a charity\");\r\n        require(\r\n            charities[_id].currentDonationAmount <\r\n                charities[_id].targetDonationAmount,\r\n            \"donation target reached\"\r\n        );\r\n        require(msg.value > 0, \"must be some value\");\r\n        charities[_id].currentDonationAmount = charities[_id]\r\n            .currentDonationAmount\r\n            .add(msg.value);\r\n        charities[_id].donors.push(msg.sender);\r\n    }\r\n\r\n    function approveForDonation(uint256 _id) external {\r\n        require(isAlreadyACharity[_id] == true, \"not a charity\");\r\n        require(\r\n            charities[_id].approved[msg.sender] == false,\r\n            \"already approved\"\r\n        );\r\n        require(isBOD[msg.sender] == true, \"not a bod\");\r\n        require(\r\n            charities[_id].currentDonationAmount ==\r\n                charities[_id].targetDonationAmount,\r\n            \"donation target reached\"\r\n        );\r\n\r\n        charities[_id].approvers = charities[_id].approvers.add(1);\r\n        charities[_id].approved[msg.sender] = true;\r\n    }\r\n\r\n    function transferFundsToCharity(uint256 _id) external onlyOwner {\r\n        require(isAlreadyACharity[_id] == true, \"not a charity\");\r\n        require(\r\n            charities[_id].currentDonationAmount >=\r\n                charities[_id].targetDonationAmount,\r\n            \"donation target not reached\"\r\n        );\r\n        require(\r\n            charities[_id].approvers >= numberOfBOD.div(2),\r\n            \"BOD dose approved\"\r\n        );\r\n        charities[_id].donationRecipient.transfer(\r\n            charities[_id].currentDonationAmount\r\n        );\r\n        isAlreadyACharity[_id] = false;\r\n    }\r\n}\r\n",
  "sourcePath": "C:\\Users\\Hp\\Desktop\\blockchain\\multisig\\contracts\\MultiSigWallet.sol",
  "compiler": {
    "name": "solc",
    "version": "0.8.13+commit.abaa5c0e.Emscripten.clang"
  },
  "schemaVersion": "3.4.7",
  "updatedAt": "2022-05-16T10:54:54.279Z",
  "devdoc": {
    "kind": "dev",
    "methods": {},
    "version": 1
  },
  "userdoc": {
    "kind": "user",
    "methods": {},
    "version": 1
  }
}